{
  "fileName": "SeasonStaking.sol",
  "contractName": "SeasonStaking",
  "source": "//SPDX-License-Identifier: MIT\n\n// Stake Legends\n\npragma solidity ^0.6.0;\npragma experimental ABIEncoderV2;\n\nimport \"@openzeppelin/contracts/access/Ownable.sol\";\nimport \"@openzeppelin/upgrades/contracts/Initializable.sol\";\nimport \"@openzeppelin/contracts/math/SafeMath.sol\";\nimport \"@openzeppelin/contracts/utils/EnumerableSet.sol\";\n\nimport \"./aave/ILendingPoolAddressesProvider.sol\";\nimport \"./aave/ILendingPool.sol\";\nimport \"./aave/ILendingPoolCore.sol\";\nimport \"./aave/IAToken.sol\";\n\nimport \"@chainlink/contracts/src/v0.6/ChainlinkClient.sol\";\n\ncontract SeasonStaking is Ownable, Initializable, ChainlinkClient {\n    \n    using SafeMath for uint256;\n    using EnumerableSet for EnumerableSet.AddressSet;\n\n    uint256 internal constant REGISTRATION_FEE = 1 ether;\n    address internal constant AAVE_ETH_ADDRESS = 0xEeeeeEeeeEeEeeEeEeEeeEEEeeeeEeeeeeeeEEeE;\n\n    string internal constant VALIDATION_URI = \"https://api.stakelegends.uly.dev/validate\";\n    string internal constant RANK_URI = \"https://api.stakelegends.uly.dev/rank\";\n\n    uint256 internal constant N_WINNERS = 5;\n\n    EnumerableSet.AddressSet private participants;\n    mapping (address => bool) public hasRedeemed;\n\n    uint256 public estimatedStartTimestamp;\n    uint256 public estimatedEndTimestamp;\n\n    enum State { Registering, Started, Ended }\n    State public state;\n\n    uint256 public initialContractBalance;\n\n    ILendingPoolAddressesProvider private _aaveAddressesProvider;\n    address private _chainlinkOracle;\n    bytes32 private _getUintJobId;\n    bytes32 private _getBoolJobId;\n    uint256 internal constant CHAINLINK_FEE = 0.1 * 10 ** 18; // 0.1 LINK\n\n    struct IdentityRequest {\n        address _address;\n        string _username;\n    }\n    mapping (bytes32 => IdentityRequest) private _identityRequests;\n    mapping (bytes32 => address) private _redeemRequests;\n    mapping (address => string) public usernameByAddress;\n    mapping (string => address) public addressByUsername;\n\n    /* Modifiers */\n\n    modifier whenRegistering {\n        require(state == State.Registering, \"The season is not in the registration phase\");\n        _;\n    }\n\n    modifier whenStarted {\n        require(state == State.Started, \"The season has not started yet\");\n        _;\n    }\n\n    modifier whenEnded {\n        require(state == State.Ended, \"The season is still running\");\n        _;\n    }\n\n    function checkIdentityStatus(address _address, string memory _username) internal {\n        require(bytes(usernameByAddress[_address]).length == 0, \"User already has a username\");\n        require(addressByUsername[_username] == address(0), \"Username already has an owner\");\n    }\n\n    function checkRedeemStatus(address _address) internal {\n        require(participants.contains(_address), \"User is not registered\");\n        require(!hasRedeemed[_address], \"User has already redeemed\");\n    }\n\n    /* Initializer */\n\n    function initialize(address aaveLendingPoolAddressesProviderAddress, address chainlinkOracle, bytes32 getUintJobId, bytes32 getBoolJobId) public initializer {\n        _aaveAddressesProvider = ILendingPoolAddressesProvider(aaveLendingPoolAddressesProviderAddress);\n\n        _chainlinkOracle = chainlinkOracle;\n        _getUintJobId = getUintJobId;\n        _getBoolJobId = getBoolJobId;\n\n        state = State.Ended;\n    }\n\n    /* Owner */\n\n    function openRegistration(uint256 _estimatedStartTimestamp) external onlyOwner whenEnded {\n        state = State.Registering;\n        estimatedStartTimestamp = _estimatedStartTimestamp;\n    }\n\n    function startSeason(uint256 _estimatedEndTimestamp) external onlyOwner whenRegistering {\n        state = State.Started;\n        estimatedEndTimestamp = _estimatedEndTimestamp;\n        initialContractBalance = address(this).balance; // Save contract balance for future reference\n        getLendingPool().deposit{ value: address(this).balance }(AAVE_ETH_ADDRESS, address(this).balance, 0); // Deposit contract ETH balance on Aave\n    }\n\n    function endSeason() external onlyOwner whenStarted {\n        state = State.Ended;\n        getAETHToken().redeem(uint256(-1)); // Redeem all initial ETH + interests\n    }\n\n    /* Public */\n\n    function register() payable external whenRegistering {\n        require(bytes(usernameByAddress[msg.sender]).length > 0, \"User has no username\");\n        require(msg.value == REGISTRATION_FEE, \"Incorrect registration fee\");\n        require(!participants.contains(msg.sender), \"User already registered\");\n        participants.add(msg.sender);\n        hasRedeemed[msg.sender] = false;\n    }\n\n    function claimUsername(string calldata _username) public {\n        checkIdentityStatus(msg.sender, _username);\n        bytes32 requestId = requestValidateUsername(msg.sender, _username);\n        _identityRequests[requestId] = IdentityRequest(msg.sender, _username);\n    }\n\n    function redeem() payable external whenEnded {\n        checkRedeemStatus(msg.sender);\n        bytes32 requestId = requestRedeem(msg.sender);\n        _redeemRequests[requestId] = msg.sender;\n    }\n\n    /* Chainlink requests */\n\n    function requestValidateUsername(address _address, string calldata _username) internal returns (bytes32) {\n        Chainlink.Request memory request = buildChainlinkRequest(_getBoolJobId, address(this), this.fulfillValidateUsername.selector);\n        request.add(\"get\", VALIDATION_URI);\n        request.add(\"queryParams\", string(abi.encodePacked(\"address=\", _address, \"&username=\", _username)));\n        request.add(\"path\", \"valid\");\n        return sendChainlinkRequestTo(_chainlinkOracle, request, CHAINLINK_FEE);\n    }\n\n    function requestRedeem(address _address) internal returns (bytes32) {\n        Chainlink.Request memory request = buildChainlinkRequest(_getUintJobId, address(this), this.fulfillRedeem.selector);\n        request.add(\"get\", RANK_URI);\n        request.add(\"queryParams\", string(abi.encodePacked(\"username=\", _address)));\n        request.add(\"path\", \"rank\");\n        return sendChainlinkRequestTo(_chainlinkOracle, request, CHAINLINK_FEE);\n    }\n\n    /* Chainlink callbacks */\n\n    function fulfillValidateUsername(bytes32 _requestId, bool _valid) public recordChainlinkFulfillment(_requestId) {\n        IdentityRequest storage identityRequest = _identityRequests[_requestId];\n        string storage _username = identityRequest._username;\n        address _address = identityRequest._address;\n        delete _identityRequests[_requestId];\n\n        checkIdentityStatus(_address, _username);\n        require(_valid, \"Identity couldn't be verified\");\n\n        usernameByAddress[_address] = _username;\n        addressByUsername[_username] = _address;\n    }\n\n    function fulfillRedeem(bytes32 _requestId, uint256 rank) public recordChainlinkFulfillment(_requestId) {\n        address _address = _redeemRequests[_requestId];\n        delete _redeemRequests[_requestId];\n\n        checkRedeemStatus(_address);\n\n        participants.remove(_address);\n        hasRedeemed[_address] = true;\n        uint256 redeemableAmount = SafeMath.add(eligiblePrize(rank), REGISTRATION_FEE);\n        (bool success, ) = address(uint160(_address)).call.value(redeemableAmount)(\"\"); // Explicit conversion to payable\n        require(success, \"Redeem failed\");\n    }\n\n    /* Private */\n\n    function getLendingPool() private view returns (ILendingPool) {\n        return ILendingPool(_aaveAddressesProvider.getLendingPool());\n    }\n\n    function getLendingPoolCore() private view returns (ILendingPoolCore) {\n        return ILendingPoolCore(_aaveAddressesProvider.getLendingPoolCore());\n    }\n\n    function getAETHToken() private view returns (IAToken) {\n        return IAToken(getLendingPoolCore().getReserveATokenAddress(AAVE_ETH_ADDRESS));\n    }\n\n    /* Views */\n\n    function eligiblePrize(uint256 rank) public view returns (uint256) {\n        if (rank >= N_WINNERS) {\n            return 0;\n        } else {\n            return SafeMath.div(generatedInterests(), N_WINNERS); // Interests equally distributed among top N players\n        }\n    }\n\n    function generatedInterests() public view returns (uint256) {\n        return SafeMath.sub(getAETHToken().balanceOf(address(this)), initialContractBalance);\n    }\n\n}\n",
  "sourcePath": "contracts/SeasonStaking.sol",
  "abi": [
    {
      "anonymous": false,
      "inputs": [
        {
          "indexed": true,
          "internalType": "bytes32",
          "name": "id",
          "type": "bytes32"
        }
      ],
      "name": "ChainlinkCancelled",
      "type": "event"
    },
    {
      "anonymous": false,
      "inputs": [
        {
          "indexed": true,
          "internalType": "bytes32",
          "name": "id",
          "type": "bytes32"
        }
      ],
      "name": "ChainlinkFulfilled",
      "type": "event"
    },
    {
      "anonymous": false,
      "inputs": [
        {
          "indexed": true,
          "internalType": "bytes32",
          "name": "id",
          "type": "bytes32"
        }
      ],
      "name": "ChainlinkRequested",
      "type": "event"
    },
    {
      "anonymous": false,
      "inputs": [
        {
          "indexed": true,
          "internalType": "address",
          "name": "previousOwner",
          "type": "address"
        },
        {
          "indexed": true,
          "internalType": "address",
          "name": "newOwner",
          "type": "address"
        }
      ],
      "name": "OwnershipTransferred",
      "type": "event"
    },
    {
      "inputs": [
        {
          "internalType": "string",
          "name": "",
          "type": "string"
        }
      ],
      "name": "addressByUsername",
      "outputs": [
        {
          "internalType": "address",
          "name": "",
          "type": "address"
        }
      ],
      "stateMutability": "view",
      "type": "function"
    },
    {
      "inputs": [
        {
          "internalType": "string",
          "name": "_username",
          "type": "string"
        }
      ],
      "name": "claimUsername",
      "outputs": [],
      "stateMutability": "nonpayable",
      "type": "function"
    },
    {
      "inputs": [
        {
          "internalType": "uint256",
          "name": "rank",
          "type": "uint256"
        }
      ],
      "name": "eligiblePrize",
      "outputs": [
        {
          "internalType": "uint256",
          "name": "",
          "type": "uint256"
        }
      ],
      "stateMutability": "view",
      "type": "function"
    },
    {
      "inputs": [],
      "name": "endSeason",
      "outputs": [],
      "stateMutability": "nonpayable",
      "type": "function"
    },
    {
      "inputs": [],
      "name": "estimatedEndTimestamp",
      "outputs": [
        {
          "internalType": "uint256",
          "name": "",
          "type": "uint256"
        }
      ],
      "stateMutability": "view",
      "type": "function"
    },
    {
      "inputs": [],
      "name": "estimatedStartTimestamp",
      "outputs": [
        {
          "internalType": "uint256",
          "name": "",
          "type": "uint256"
        }
      ],
      "stateMutability": "view",
      "type": "function"
    },
    {
      "inputs": [
        {
          "internalType": "bytes32",
          "name": "_requestId",
          "type": "bytes32"
        },
        {
          "internalType": "uint256",
          "name": "rank",
          "type": "uint256"
        }
      ],
      "name": "fulfillRedeem",
      "outputs": [],
      "stateMutability": "nonpayable",
      "type": "function"
    },
    {
      "inputs": [
        {
          "internalType": "bytes32",
          "name": "_requestId",
          "type": "bytes32"
        },
        {
          "internalType": "bool",
          "name": "_valid",
          "type": "bool"
        }
      ],
      "name": "fulfillValidateUsername",
      "outputs": [],
      "stateMutability": "nonpayable",
      "type": "function"
    },
    {
      "inputs": [],
      "name": "generatedInterests",
      "outputs": [
        {
          "internalType": "uint256",
          "name": "",
          "type": "uint256"
        }
      ],
      "stateMutability": "view",
      "type": "function"
    },
    {
      "inputs": [
        {
          "internalType": "address",
          "name": "",
          "type": "address"
        }
      ],
      "name": "hasRedeemed",
      "outputs": [
        {
          "internalType": "bool",
          "name": "",
          "type": "bool"
        }
      ],
      "stateMutability": "view",
      "type": "function"
    },
    {
      "inputs": [],
      "name": "initialContractBalance",
      "outputs": [
        {
          "internalType": "uint256",
          "name": "",
          "type": "uint256"
        }
      ],
      "stateMutability": "view",
      "type": "function"
    },
    {
      "inputs": [
        {
          "internalType": "address",
          "name": "aaveLendingPoolAddressesProviderAddress",
          "type": "address"
        },
        {
          "internalType": "address",
          "name": "chainlinkOracle",
          "type": "address"
        },
        {
          "internalType": "bytes32",
          "name": "getUintJobId",
          "type": "bytes32"
        },
        {
          "internalType": "bytes32",
          "name": "getBoolJobId",
          "type": "bytes32"
        }
      ],
      "name": "initialize",
      "outputs": [],
      "stateMutability": "nonpayable",
      "type": "function"
    },
    {
      "inputs": [
        {
          "internalType": "uint256",
          "name": "_estimatedStartTimestamp",
          "type": "uint256"
        }
      ],
      "name": "openRegistration",
      "outputs": [],
      "stateMutability": "nonpayable",
      "type": "function"
    },
    {
      "inputs": [],
      "name": "owner",
      "outputs": [
        {
          "internalType": "address",
          "name": "",
          "type": "address"
        }
      ],
      "stateMutability": "view",
      "type": "function"
    },
    {
      "inputs": [],
      "name": "redeem",
      "outputs": [],
      "stateMutability": "payable",
      "type": "function"
    },
    {
      "inputs": [],
      "name": "register",
      "outputs": [],
      "stateMutability": "payable",
      "type": "function"
    },
    {
      "inputs": [],
      "name": "renounceOwnership",
      "outputs": [],
      "stateMutability": "nonpayable",
      "type": "function"
    },
    {
      "inputs": [
        {
          "internalType": "uint256",
          "name": "_estimatedEndTimestamp",
          "type": "uint256"
        }
      ],
      "name": "startSeason",
      "outputs": [],
      "stateMutability": "nonpayable",
      "type": "function"
    },
    {
      "inputs": [],
      "name": "state",
      "outputs": [
        {
          "internalType": "enum SeasonStaking.State",
          "name": "",
          "type": "uint8"
        }
      ],
      "stateMutability": "view",
      "type": "function"
    },
    {
      "inputs": [
        {
          "internalType": "address",
          "name": "newOwner",
          "type": "address"
        }
      ],
      "name": "transferOwnership",
      "outputs": [],
      "stateMutability": "nonpayable",
      "type": "function"
    },
    {
      "inputs": [
        {
          "internalType": "address",
          "name": "",
          "type": "address"
        }
      ],
      "name": "usernameByAddress",
      "outputs": [
        {
          "internalType": "string",
          "name": "",
          "type": "string"
        }
      ],
      "stateMutability": "view",
      "type": "function"
    }
  ],
  "bytecode": "0x608060405260016037553480156200001657600080fd5b50600062000029620000cd60201b60201c565b9050806000806101000a81548173ffffffffffffffffffffffffffffffffffffffff021916908373ffffffffffffffffffffffffffffffffffffffff1602179055508073ffffffffffffffffffffffffffffffffffffffff16600073ffffffffffffffffffffffffffffffffffffffff167f8be0079c531659141344cd1fd0a4f28419497f9722a3daafe3b4186f6b6457e060405160405180910390a350620000d5565b600033905090565b6142a080620000e56000396000f3fe60806040526004361061012a5760003560e01c806376cfcff6116100ab5780639f6858791161006f5780639f68587914610399578063be040fb0146103c2578063c19d93fb146103cc578063cca84a0c146103f7578063db78b67c14610420578063f2fde38b1461045d5761012a565b806376cfcff6146102b2578063847c14b0146102db57806386bc1217146103065780638da5cb5b146103315780639457d8441461035c5761012a565b8063364b287a116100f2578063364b287a146101f55780633dcdb6721461021e5780636814a57a14610235578063703dbfe414610272578063715018a61461029b5761012a565b806312b07c551461012f5780631aa3a0081461015a5780631c9cc75a146101645780632cc91a8d1461018f578063322befc3146101b8575b600080fd5b34801561013b57600080fd5b50610144610486565b6040516101519190613f3e565b60405180910390f35b61016261048c565b005b34801561017057600080fd5b50610179610697565b6040516101869190613f3e565b60405180910390f35b34801561019b57600080fd5b506101b660048036038101906101b1919061318c565b61069d565b005b3480156101c457600080fd5b506101df60048036038101906101da9190613049565b610958565b6040516101ec9190613cdc565b60405180910390f35b34801561020157600080fd5b5061021c60048036038101906102179190613150565b610a08565b005b34801561022a57600080fd5b50610233610d4a565b005b34801561024157600080fd5b5061025c6004803603810190610257919061320d565b610eff565b6040516102699190613b91565b60405180910390f35b34801561027e57600080fd5b506102996004803603810190610294919061324e565b610f48565b005b3480156102a757600080fd5b506102b061114b565b005b3480156102be57600080fd5b506102d960048036038101906102d491906130c4565b61129e565b005b3480156102e757600080fd5b506102f0611441565b6040516102fd9190613f3e565b60405180910390f35b34801561031257600080fd5b5061031b6114e3565b6040516103289190613f3e565b60405180910390f35b34801561033d57600080fd5b506103466114e9565b6040516103539190613b91565b60405180910390f35b34801561036857600080fd5b50610383600480360381019061037e919061324e565b611512565b6040516103909190613f3e565b60405180910390f35b3480156103a557600080fd5b506103c060048036038101906103bb91906131c8565b61153f565b005b6103ca61168a565b005b3480156103d857600080fd5b506103e161175c565b6040516103ee9190613cc1565b60405180910390f35b34801561040357600080fd5b5061041e6004803603810190610419919061324e565b61176f565b005b34801561042c57600080fd5b5061044760048036038101906104429190613049565b611899565b6040516104549190613ca6565b60405180910390f35b34801561046957600080fd5b50610484600480360381019061047f9190613049565b6118b9565b005b603f5481565b6000600281111561049957fe5b603e60009054906101000a900460ff1660028111156104b457fe5b146104f4576040517f08c379a00000000000000000000000000000000000000000000000000000000081526004016104eb90613dde565b60405180910390fd5b6000604660003373ffffffffffffffffffffffffffffffffffffffff1673ffffffffffffffffffffffffffffffffffffffff1681526020019081526020016000208054600181600116156101000203166002900490501161058a576040517f08c379a000000000000000000000000000000000000000000000000000000000815260040161058190613e3e565b60405180910390fd5b670de0b6b3a764000034146105d4576040517f08c379a00000000000000000000000000000000000000000000000000000000081526004016105cb90613cfe565b60405180910390fd5b6105e8336039611a7b90919063ffffffff16565b15610628576040517f08c379a000000000000000000000000000000000000000000000000000000000815260040161061f90613e9e565b60405180910390fd5b61063c336039611aab90919063ffffffff16565b506000603b60003373ffffffffffffffffffffffffffffffffffffffff1673ffffffffffffffffffffffffffffffffffffffff16815260200190815260200160002060006101000a81548160ff021916908315150217905550565b603c5481565b816038600082815260200190815260200160002060009054906101000a900473ffffffffffffffffffffffffffffffffffffffff1673ffffffffffffffffffffffffffffffffffffffff163373ffffffffffffffffffffffffffffffffffffffff161461073f576040517f08c379a000000000000000000000000000000000000000000000000000000000815260040161073690613ede565b60405180910390fd5b6038600082815260200190815260200160002060006101000a81549073ffffffffffffffffffffffffffffffffffffffff0219169055807f7cc135e0cebb02c3480ae5d74d377283180a2601f8f644edf7987b009316c63a60405160405180910390a260006045600085815260200190815260200160002060009054906101000a900473ffffffffffffffffffffffffffffffffffffffff1690506045600085815260200190815260200160002060006101000a81549073ffffffffffffffffffffffffffffffffffffffff021916905561081981611adb565b61082d816039611bbe90919063ffffffff16565b506001603b60008373ffffffffffffffffffffffffffffffffffffffff1673ffffffffffffffffffffffffffffffffffffffff16815260200190815260200160002060006101000a81548160ff02191690831515021790555060006108a261089485611512565b670de0b6b3a7640000611bee565b905060008273ffffffffffffffffffffffffffffffffffffffff16826040516108ca90613b7c565b60006040518083038185875af1925050503d8060008114610907576040519150601f19603f3d011682016040523d82523d6000602084013e61090c565b606091505b5050905080610950576040517f08c379a000000000000000000000000000000000000000000000000000000000815260040161094790613dfe565b60405180910390fd5b505050505050565b60466020528060005260406000206000915090508054600181600116156101000203166002900480601f016020809104026020016040519081016040528092919081815260200182805460018160011615610100020316600290048015610a005780601f106109d557610100808354040283529160200191610a00565b820191906000526020600020905b8154815290600101906020018083116109e357829003601f168201915b505050505081565b816038600082815260200190815260200160002060009054906101000a900473ffffffffffffffffffffffffffffffffffffffff1673ffffffffffffffffffffffffffffffffffffffff163373ffffffffffffffffffffffffffffffffffffffff1614610aaa576040517f08c379a0000000000000000000000000000000000000000000000000000000008152600401610aa190613ede565b60405180910390fd5b6038600082815260200190815260200160002060006101000a81549073ffffffffffffffffffffffffffffffffffffffff0219169055807f7cc135e0cebb02c3480ae5d74d377283180a2601f8f644edf7987b009316c63a60405160405180910390a26000604460008581526020019081526020016000209050600081600101905060008260000160009054906101000a900473ffffffffffffffffffffffffffffffffffffffff16905060446000878152602001908152602001600020600080820160006101000a81549073ffffffffffffffffffffffffffffffffffffffff0219169055600182016000610ba09190612d10565b5050610c4581838054600181600116156101000203166002900480601f016020809104026020016040519081016040528092919081815260200182805460018160011615610100020316600290048015610c3b5780601f10610c1057610100808354040283529160200191610c3b565b820191906000526020600020905b815481529060010190602001808311610c1e57829003601f168201915b5050505050611c43565b84610c85576040517f08c379a0000000000000000000000000000000000000000000000000000000008152600401610c7c90613efe565b60405180910390fd5b81604660008373ffffffffffffffffffffffffffffffffffffffff1673ffffffffffffffffffffffffffffffffffffffff1681526020019081526020016000209080546001816001161561010002031660029004610ce4929190612d58565b5080604783604051610cf69190613aff565b908152602001604051809103902060006101000a81548173ffffffffffffffffffffffffffffffffffffffff021916908373ffffffffffffffffffffffffffffffffffffffff160217905550505050505050565b610d52611d8a565b73ffffffffffffffffffffffffffffffffffffffff1660008054906101000a900473ffffffffffffffffffffffffffffffffffffffff1673ffffffffffffffffffffffffffffffffffffffff1614610ddf576040517f08c379a0000000000000000000000000000000000000000000000000000000008152600401610dd690613e5e565b60405180910390fd5b60016002811115610dec57fe5b603e60009054906101000a900460ff166002811115610e0757fe5b14610e47576040517f08c379a0000000000000000000000000000000000000000000000000000000008152600401610e3e90613e1e565b60405180910390fd5b6002603e60006101000a81548160ff02191690836002811115610e6657fe5b0217905550610e73611d92565b73ffffffffffffffffffffffffffffffffffffffff1663db006a757fffffffffffffffffffffffffffffffffffffffffffffffffffffffffffffffff6040518263ffffffff1660e01b8152600401610ecb9190613f3e565b600060405180830381600087803b158015610ee557600080fd5b505af1158015610ef9573d6000803e3d6000fd5b50505050565b6047818051602081018201805184825260208301602085012081835280955050505050506000915054906101000a900473ffffffffffffffffffffffffffffffffffffffff1681565b610f50611d8a565b73ffffffffffffffffffffffffffffffffffffffff1660008054906101000a900473ffffffffffffffffffffffffffffffffffffffff1673ffffffffffffffffffffffffffffffffffffffff1614610fdd576040517f08c379a0000000000000000000000000000000000000000000000000000000008152600401610fd490613e5e565b60405180910390fd5b60006002811115610fea57fe5b603e60009054906101000a900460ff16600281111561100557fe5b14611045576040517f08c379a000000000000000000000000000000000000000000000000000000000815260040161103c90613dde565b60405180910390fd5b6001603e60006101000a81548160ff0219169083600281111561106457fe5b021790555080603d819055503073ffffffffffffffffffffffffffffffffffffffff1631603f81905550611096611e3d565b73ffffffffffffffffffffffffffffffffffffffff1663d2d0e0663073ffffffffffffffffffffffffffffffffffffffff163173eeeeeeeeeeeeeeeeeeeeeeeeeeeeeeeeeeeeeeee3073ffffffffffffffffffffffffffffffffffffffff163160006040518563ffffffff1660e01b815260040161111693929190613c6f565b6000604051808303818588803b15801561112f57600080fd5b505af1158015611143573d6000803e3d6000fd5b505050505050565b611153611d8a565b73ffffffffffffffffffffffffffffffffffffffff1660008054906101000a900473ffffffffffffffffffffffffffffffffffffffff1673ffffffffffffffffffffffffffffffffffffffff16146111e0576040517f08c379a00000000000000000000000000000000000000000000000000000000081526004016111d790613e5e565b60405180910390fd5b600073ffffffffffffffffffffffffffffffffffffffff1660008054906101000a900473ffffffffffffffffffffffffffffffffffffffff1673ffffffffffffffffffffffffffffffffffffffff167f8be0079c531659141344cd1fd0a4f28419497f9722a3daafe3b4186f6b6457e060405160405180910390a360008060006101000a81548173ffffffffffffffffffffffffffffffffffffffff021916908373ffffffffffffffffffffffffffffffffffffffff160217905550565b600060159054906101000a900460ff16806112bd57506112bc611ee4565b5b806112d55750600060149054906101000a900460ff16155b611314576040517f08c379a000000000000000000000000000000000000000000000000000000000815260040161130b90613e7e565b60405180910390fd5b60008060159054906101000a900460ff161590508015611365576001600060156101000a81548160ff0219169083151502179055506001600060146101000a81548160ff0219169083151502179055505b84604060006101000a81548173ffffffffffffffffffffffffffffffffffffffff021916908373ffffffffffffffffffffffffffffffffffffffff16021790555083604160006101000a81548173ffffffffffffffffffffffffffffffffffffffff021916908373ffffffffffffffffffffffffffffffffffffffff16021790555082604281905550816043819055506002603e60006101000a81548160ff0219169083600281111561141457fe5b0217905550801561143a5760008060156101000a81548160ff0219169083151502179055505b5050505050565b60006114de61144e611d92565b73ffffffffffffffffffffffffffffffffffffffff166370a08231306040518263ffffffff1660e01b81526004016114869190613b91565b60206040518083038186803b15801561149e57600080fd5b505afa1580156114b2573d6000803e3d6000fd5b505050506040513d601f19601f820116820180604052508101906114d69190613277565b603f54611efb565b905090565b603d5481565b60008060009054906101000a900473ffffffffffffffffffffffffffffffffffffffff16905090565b600060058210611525576000905061153a565b611537611530611441565b6005611f45565b90505b919050565b61158d3383838080601f016020809104026020016040519081016040528093929190818152602001838380828437600081840152601f19601f82011690508083019250505050505050611c43565b600061159a338484611f8f565b905060405180604001604052803373ffffffffffffffffffffffffffffffffffffffff16815260200184848080601f016020809104026020016040519081016040528093929190818152602001838380828437600081840152601f19601f820116905080830192505050505050508152506044600083815260200190815260200160002060008201518160000160006101000a81548173ffffffffffffffffffffffffffffffffffffffff021916908373ffffffffffffffffffffffffffffffffffffffff1602179055506020820151816001019080519060200190611681929190612ddf565b50905050505050565b60028081111561169657fe5b603e60009054906101000a900460ff1660028111156116b157fe5b146116f1576040517f08c379a00000000000000000000000000000000000000000000000000000000081526004016116e890613ebe565b60405180910390fd5b6116fa33611adb565b60006117053361213c565b9050336045600083815260200190815260200160002060006101000a81548173ffffffffffffffffffffffffffffffffffffffff021916908373ffffffffffffffffffffffffffffffffffffffff16021790555050565b603e60009054906101000a900460ff1681565b611777611d8a565b73ffffffffffffffffffffffffffffffffffffffff1660008054906101000a900473ffffffffffffffffffffffffffffffffffffffff1673ffffffffffffffffffffffffffffffffffffffff1614611804576040517f08c379a00000000000000000000000000000000000000000000000000000000081526004016117fb90613e5e565b60405180910390fd5b60028081111561181057fe5b603e60009054906101000a900460ff16600281111561182b57fe5b1461186b576040517f08c379a000000000000000000000000000000000000000000000000000000000815260040161186290613ebe565b60405180910390fd5b6000603e60006101000a81548160ff0219169083600281111561188a57fe5b021790555080603c8190555050565b603b6020528060005260406000206000915054906101000a900460ff1681565b6118c1611d8a565b73ffffffffffffffffffffffffffffffffffffffff1660008054906101000a900473ffffffffffffffffffffffffffffffffffffffff1673ffffffffffffffffffffffffffffffffffffffff161461194e576040517f08c379a000000000000000000000000000000000000000000000000000000000815260040161194590613e5e565b60405180910390fd5b600073ffffffffffffffffffffffffffffffffffffffff168173ffffffffffffffffffffffffffffffffffffffff1614156119be576040517f08c379a00000000000000000000000000000000000000000000000000000000081526004016119b590613d1e565b60405180910390fd5b8073ffffffffffffffffffffffffffffffffffffffff1660008054906101000a900473ffffffffffffffffffffffffffffffffffffffff1673ffffffffffffffffffffffffffffffffffffffff167f8be0079c531659141344cd1fd0a4f28419497f9722a3daafe3b4186f6b6457e060405160405180910390a3806000806101000a81548173ffffffffffffffffffffffffffffffffffffffff021916908373ffffffffffffffffffffffffffffffffffffffff16021790555050565b6000611aa3836000018373ffffffffffffffffffffffffffffffffffffffff1660001b6122e3565b905092915050565b6000611ad3836000018373ffffffffffffffffffffffffffffffffffffffff1660001b612306565b905092915050565b611aef816039611a7b90919063ffffffff16565b611b2e576040517f08c379a0000000000000000000000000000000000000000000000000000000008152600401611b2590613dbe565b60405180910390fd5b603b60008273ffffffffffffffffffffffffffffffffffffffff1673ffffffffffffffffffffffffffffffffffffffff16815260200190815260200160002060009054906101000a900460ff1615611bbb576040517f08c379a0000000000000000000000000000000000000000000000000000000008152600401611bb290613d7e565b60405180910390fd5b50565b6000611be6836000018373ffffffffffffffffffffffffffffffffffffffff1660001b612376565b905092915050565b600080828401905083811015611c39576040517f08c379a0000000000000000000000000000000000000000000000000000000008152600401611c3090613d3e565b60405180910390fd5b8091505092915050565b6000604660008473ffffffffffffffffffffffffffffffffffffffff1673ffffffffffffffffffffffffffffffffffffffff16815260200190815260200160002080546001816001161561010002031660029004905014611cd9576040517f08c379a0000000000000000000000000000000000000000000000000000000008152600401611cd090613f1e565b60405180910390fd5b600073ffffffffffffffffffffffffffffffffffffffff16604782604051611d019190613ae8565b908152602001604051809103902060009054906101000a900473ffffffffffffffffffffffffffffffffffffffff1673ffffffffffffffffffffffffffffffffffffffff1614611d86576040517f08c379a0000000000000000000000000000000000000000000000000000000008152600401611d7d90613d5e565b60405180910390fd5b5050565b600033905090565b6000611d9c61245e565b73ffffffffffffffffffffffffffffffffffffffff166334b3beee73eeeeeeeeeeeeeeeeeeeeeeeeeeeeeeeeeeeeeeee6040518263ffffffff1660e01b8152600401611de89190613b91565b60206040518083038186803b158015611e0057600080fd5b505afa158015611e14573d6000803e3d6000fd5b505050506040513d601f19601f82011682018060405250810190611e389190613072565b905090565b6000604060009054906101000a900473ffffffffffffffffffffffffffffffffffffffff1673ffffffffffffffffffffffffffffffffffffffff16630261bf8b6040518163ffffffff1660e01b815260040160206040518083038186803b158015611ea757600080fd5b505afa158015611ebb573d6000803e3d6000fd5b505050506040513d601f19601f82011682018060405250810190611edf9190613072565b905090565b6000803090506000813b9050600081149250505090565b6000611f3d83836040518060400160405280601e81526020017f536166654d6174683a207375627472616374696f6e206f766572666c6f770000815250612505565b905092915050565b6000611f8783836040518060400160405280601a81526020017f536166654d6174683a206469766973696f6e206279207a65726f000000000000815250612560565b905092915050565b6000611f99612e5f565b611fad6043543063364b287a60e01b6125c1565b90506120116040518060400160405280600381526020017f676574000000000000000000000000000000000000000000000000000000000081525060405180606001604052806029815260200161424260299139836125f29092919063ffffffff16565b61207e6040518060400160405280600b81526020017f7175657279506172616d7300000000000000000000000000000000000000000081525086868660405160200161205f93929190613b3c565b604051602081830303815290604052836125f29092919063ffffffff16565b6120fd6040518060400160405280600481526020017f70617468000000000000000000000000000000000000000000000000000000008152506040518060400160405280600581526020017f76616c6964000000000000000000000000000000000000000000000000000000815250836125f29092919063ffffffff16565b612132604160009054906101000a900473ffffffffffffffffffffffffffffffffffffffff168267016345785d8a0000612625565b9150509392505050565b6000612146612e5f565b61215a60425430632cc91a8d60e01b6125c1565b90506121be6040518060400160405280600381526020017f676574000000000000000000000000000000000000000000000000000000000081525060405180606001604052806025815260200161421d60259139836125f29092919063ffffffff16565b6122276040518060400160405280600b81526020017f7175657279506172616d73000000000000000000000000000000000000000000815250846040516020016122089190613b16565b604051602081830303815290604052836125f29092919063ffffffff16565b6122a66040518060400160405280600481526020017f70617468000000000000000000000000000000000000000000000000000000008152506040518060400160405280600481526020017f72616e6b00000000000000000000000000000000000000000000000000000000815250836125f29092919063ffffffff16565b6122db604160009054906101000a900473ffffffffffffffffffffffffffffffffffffffff168267016345785d8a0000612625565b915050919050565b600080836001016000848152602001908152602001600020541415905092915050565b600061231283836122e3565b61236b578260000182908060018154018082558091505060019003906000526020600020016000909190919091505582600001805490508360010160008481526020019081526020016000208190555060019050612370565b600090505b92915050565b6000808360010160008481526020019081526020016000205490506000811461245257600060018203905060006001866000018054905003905060008660000182815481106123c157fe5b90600052602060002001549050808760000184815481106123de57fe5b906000526020600020018190555060018301876001016000838152602001908152602001600020819055508660000180548061241657fe5b60019003818190600052602060002001600090559055866001016000878152602001908152602001600020600090556001945050505050612458565b60009150505b92915050565b6000604060009054906101000a900473ffffffffffffffffffffffffffffffffffffffff1673ffffffffffffffffffffffffffffffffffffffff1663ed6ff7606040518163ffffffff1660e01b815260040160206040518083038186803b1580156124c857600080fd5b505afa1580156124dc573d6000803e3d6000fd5b505050506040513d601f19601f82011682018060405250810190612500919061309b565b905090565b600083831115829061254d576040517f08c379a00000000000000000000000000000000000000000000000000000000081526004016125449190613cdc565b60405180910390fd5b5060008385039050809150509392505050565b600080831182906125a7576040517f08c379a000000000000000000000000000000000000000000000000000000000815260040161259e9190613cdc565b60405180910390fd5b5060008385816125b357fe5b049050809150509392505050565b6125c9612e5f565b6125d1612e5f565b6125e8858585846127ef909392919063ffffffff16565b9150509392505050565b61260982846080015161289f90919063ffffffff16565b61262081846080015161289f90919063ffffffff16565b505050565b60003060375460405160200161263c929190613abc565b604051602081830303815290604052805190602001209050603754836060018181525050836038600083815260200190815260200160002060006101000a81548173ffffffffffffffffffffffffffffffffffffffff021916908373ffffffffffffffffffffffffffffffffffffffff160217905550807fb5e6e01e79f91267dc17b4e6314d5d4d03593d2ceee0fbb452b750bd70ea5af960405160405180910390a2603560009054906101000a900473ffffffffffffffffffffffffffffffffffffffff1673ffffffffffffffffffffffffffffffffffffffff16634000aea08584612728876128c4565b6040518463ffffffff1660e01b815260040161274693929190613c31565b602060405180830381600087803b15801561276057600080fd5b505af1158015612774573d6000803e3d6000fd5b505050506040513d601f19601f820116820180604052508101906127989190613127565b6127d7576040517f08c379a00000000000000000000000000000000000000000000000000000000081526004016127ce90613d9e565b60405180910390fd5b60016037600082825401925050819055509392505050565b6127f7612e5f565b612807856080015161010061296b565b508385600001818152505082856020019073ffffffffffffffffffffffffffffffffffffffff16908173ffffffffffffffffffffffffffffffffffffffff16815250508185604001907bffffffffffffffffffffffffffffffffffffffffffffffffffffffff191690817bffffffffffffffffffffffffffffffffffffffffffffffffffffffff191681525050849050949350505050565b6128ac82600383516129bf565b6128bf8183612b0490919063ffffffff16565b505050565b6060634042994660e01b60008084600001518560200151866040015187606001516001896080015160000151604051602401612907989796959493929190613bac565b604051602081830303815290604052907bffffffffffffffffffffffffffffffffffffffffffffffffffffffff19166020820180517bffffffffffffffffffffffffffffffffffffffffffffffffffffffff83818316178352505050509050919050565b612973612ecc565b60006020838161297f57fe5b0614612998576020828161298f57fe5b06602003820191505b81836020018181525050604051808452600081528281016020016040525082905092915050565b601781116129ec576129e68160058460ff16901b60ff161784612b2690919063ffffffff16565b50612aff565b60ff8111612a2e57612a11601860058460ff16901b1784612b2690919063ffffffff16565b50612a2881600185612b469092919063ffffffff16565b50612afe565b61ffff8111612a7157612a54601960058460ff16901b1784612b2690919063ffffffff16565b50612a6b81600285612b469092919063ffffffff16565b50612afd565b63ffffffff8111612ab657612a99601a60058460ff16901b1784612b2690919063ffffffff16565b50612ab081600485612b469092919063ffffffff16565b50612afc565b67ffffffffffffffff8111612afb57612ae2601b60058460ff16901b1784612b2690919063ffffffff16565b50612af981600885612b469092919063ffffffff16565b505b5b5b5b5b505050565b612b0c612ecc565b612b1e83846000015151848551612b68565b905092915050565b612b2e612ecc565b612b3e8384600001515184612c21565b905092915050565b612b4e612ecc565b612b5f848560000151518585612c6f565b90509392505050565b612b70612ecc565b8251821115612b7e57600080fd5b84602001518285011115612ba957612ba8856002612ba28860200151888701612cd0565b02612cec565b5b600080865180518760208301019350808887011115612bc85787860182525b60208701925050505b60208410612bf45780518252602082019150602081019050602084039350612bd1565b60006001856020036101000a03905080198251168184511681811785525050879350505050949350505050565b612c29612ecc565b83602001518310612c4657612c45846002866020015102612cec565b5b8351805160208583010184815381861415612c62576001820183525b5050508390509392505050565b612c77612ecc565b84602001518483011115612c9557612c9485600286850102612cec565b5b60006001836101000a0390508551838682010185831982511617815281518588011115612cc25784870182525b505085915050949350505050565b600081831115612ce257829050612ce6565b8190505b92915050565b606082600001519050612cff838361296b565b50612d0a8382612b04565b50505050565b50805460018160011615610100020316600290046000825580601f10612d365750612d55565b601f016020900490600052602060002090810190612d549190612ee6565b5b50565b828054600181600116156101000203166002900490600052602060002090601f016020900481019282601f10612d915780548555612dce565b82800160010185558215612dce57600052602060002091601f016020900482015b82811115612dcd578254825591600101919060010190612db2565b5b509050612ddb9190612ee6565b5090565b828054600181600116156101000203166002900490600052602060002090601f016020900481019282601f10612e2057805160ff1916838001178555612e4e565b82800160010185558215612e4e579182015b82811115612e4d578251825591602001919060010190612e32565b5b509050612e5b9190612ee6565b5090565b6040518060a0016040528060008019168152602001600073ffffffffffffffffffffffffffffffffffffffff16815260200160007bffffffffffffffffffffffffffffffffffffffffffffffffffffffff1916815260200160008152602001612ec6612ecc565b81525090565b604051806040016040528060608152602001600081525090565b5b80821115612eff576000816000905550600101612ee7565b5090565b600081359050612f12816141a9565b92915050565b600081519050612f27816141a9565b92915050565b600081519050612f3c816141c0565b92915050565b600081359050612f51816141d7565b92915050565b600081519050612f66816141d7565b92915050565b600081359050612f7b816141ee565b92915050565b60008083601f840112612f9357600080fd5b8235905067ffffffffffffffff811115612fac57600080fd5b602083019150836001820283011115612fc457600080fd5b9250929050565b600082601f830112612fdc57600080fd5b8135612fef612fea82613f86565b613f59565b9150808252602083016020830185838301111561300b57600080fd5b61301683828461410e565b50505092915050565b60008135905061302e81614205565b92915050565b60008151905061304381614205565b92915050565b60006020828403121561305b57600080fd5b600061306984828501612f03565b91505092915050565b60006020828403121561308457600080fd5b600061309284828501612f18565b91505092915050565b6000602082840312156130ad57600080fd5b60006130bb84828501612f2d565b91505092915050565b600080600080608085870312156130da57600080fd5b60006130e887828801612f03565b94505060206130f987828801612f03565b935050604061310a87828801612f6c565b925050606061311b87828801612f6c565b91505092959194509250565b60006020828403121561313957600080fd5b600061314784828501612f57565b91505092915050565b6000806040838503121561316357600080fd5b600061317185828601612f6c565b925050602061318285828601612f42565b9150509250929050565b6000806040838503121561319f57600080fd5b60006131ad85828601612f6c565b92505060206131be8582860161301f565b9150509250929050565b600080602083850312156131db57600080fd5b600083013567ffffffffffffffff8111156131f557600080fd5b61320185828601612f81565b92509250509250929050565b60006020828403121561321f57600080fd5b600082013567ffffffffffffffff81111561323957600080fd5b61324584828501612fcb565b91505092915050565b60006020828403121561326057600080fd5b600061326e8482850161301f565b91505092915050565b60006020828403121561328957600080fd5b600061329784828501613034565b91505092915050565b6132a981614015565b82525050565b6132c06132bb82614015565b614150565b82525050565b6132cf81614039565b82525050565b6132de81614045565b82525050565b6132ed8161404f565b82525050565b60006132fe82613fc7565b6133088185613fdd565b935061331881856020860161411d565b6133218161417e565b840191505092915050565b61333d613338826140c6565b614150565b82525050565b61334c816140ea565b82525050565b61335b816140fc565b82525050565b600061336d838561400a565b935061337a83858461410e565b82840190509392505050565b600061339182613fd2565b61339b8185613ff9565b93506133ab81856020860161411d565b6133b48161417e565b840191505092915050565b60006133ca82613fd2565b6133d4818561400a565b93506133e481856020860161411d565b80840191505092915050565b60008154600181166000811461340d576001811461343257613476565b607f600283041661341e818761400a565b955060ff1983168652808601935050613476565b60028204613440818761400a565b955061344b85613fb2565b60005b8281101561346d5781548189015260018201915060208101905061344e565b82880195505050505b505092915050565b600061348b601a83613ff9565b91507f496e636f727265637420726567697374726174696f6e206665650000000000006000830152602082019050919050565b60006134cb602683613ff9565b91507f4f776e61626c653a206e6577206f776e657220697320746865207a65726f206160008301527f64647265737300000000000000000000000000000000000000000000000000006020830152604082019050919050565b6000613531601b83613ff9565b91507f536166654d6174683a206164646974696f6e206f766572666c6f7700000000006000830152602082019050919050565b6000613571601d83613ff9565b91507f557365726e616d6520616c72656164792068617320616e206f776e65720000006000830152602082019050919050565b60006135b1601983613ff9565b91507f557365722068617320616c72656164792072656465656d6564000000000000006000830152602082019050919050565b60006135f1602383613ff9565b91507f756e61626c6520746f207472616e73666572416e6443616c6c20746f206f726160008301527f636c6500000000000000000000000000000000000000000000000000000000006020830152604082019050919050565b600061365760098361400a565b91507f757365726e616d653d00000000000000000000000000000000000000000000006000830152600982019050919050565b6000613697601683613ff9565b91507f55736572206973206e6f742072656769737465726564000000000000000000006000830152602082019050919050565b60006136d7602b83613ff9565b91507f54686520736561736f6e206973206e6f7420696e20746865207265676973747260008301527f6174696f6e2070686173650000000000000000000000000000000000000000006020830152604082019050919050565b600061373d600d83613ff9565b91507f52656465656d206661696c6564000000000000000000000000000000000000006000830152602082019050919050565b600061377d601e83613ff9565b91507f54686520736561736f6e20686173206e6f7420737461727465642079657400006000830152602082019050919050565b60006137bd601483613ff9565b91507f5573657220686173206e6f20757365726e616d650000000000000000000000006000830152602082019050919050565b60006137fd602083613ff9565b91507f4f776e61626c653a2063616c6c6572206973206e6f7420746865206f776e65726000830152602082019050919050565b600061383d602e83613ff9565b91507f436f6e747261637420696e7374616e63652068617320616c726561647920626560008301527f656e20696e697469616c697a65640000000000000000000000000000000000006020830152604082019050919050565b60006138a3601783613ff9565b91507f5573657220616c726561647920726567697374657265640000000000000000006000830152602082019050919050565b60006138e3601b83613ff9565b91507f54686520736561736f6e206973207374696c6c2072756e6e696e6700000000006000830152602082019050919050565b600061392360088361400a565b91507f616464726573733d0000000000000000000000000000000000000000000000006000830152600882019050919050565b6000613963600083613fee565b9150600082019050919050565b600061397d602883613ff9565b91507f536f75726365206d75737420626520746865206f7261636c65206f662074686560008301527f20726571756573740000000000000000000000000000000000000000000000006020830152604082019050919050565b60006139e3601d83613ff9565b91507f4964656e7469747920636f756c646e27742062652076657269666965640000006000830152602082019050919050565b6000613a23600a8361400a565b91507f26757365726e616d653d000000000000000000000000000000000000000000006000830152600a82019050919050565b6000613a63601b83613ff9565b91507f5573657220616c726561647920686173206120757365726e616d6500000000006000830152602082019050919050565b613a9f816140bc565b82525050565b613ab6613ab1826140bc565b614174565b82525050565b6000613ac8828561332c565b601482019150613ad88284613aa5565b6020820191508190509392505050565b6000613af482846133bf565b915081905092915050565b6000613b0b82846133f0565b915081905092915050565b6000613b218261364a565b9150613b2d82846132af565b60148201915081905092915050565b6000613b4782613916565b9150613b5382866132af565b601482019150613b6282613a16565b9150613b6f828486613361565b9150819050949350505050565b6000613b8782613956565b9150819050919050565b6000602082019050613ba660008301846132a0565b92915050565b600061010082019050613bc2600083018b6132a0565b613bcf602083018a613a96565b613bdc60408301896132d5565b613be960608301886132a0565b613bf660808301876132e4565b613c0360a0830186613a96565b613c1060c0830185613a96565b81810360e0830152613c2281846132f3565b90509998505050505050505050565b6000606082019050613c4660008301866132a0565b613c536020830185613a96565b8181036040830152613c6581846132f3565b9050949350505050565b6000606082019050613c8460008301866132a0565b613c916020830185613a96565b613c9e6040830184613352565b949350505050565b6000602082019050613cbb60008301846132c6565b92915050565b6000602082019050613cd66000830184613343565b92915050565b60006020820190508181036000830152613cf68184613386565b905092915050565b60006020820190508181036000830152613d178161347e565b9050919050565b60006020820190508181036000830152613d37816134be565b9050919050565b60006020820190508181036000830152613d5781613524565b9050919050565b60006020820190508181036000830152613d7781613564565b9050919050565b60006020820190508181036000830152613d97816135a4565b9050919050565b60006020820190508181036000830152613db7816135e4565b9050919050565b60006020820190508181036000830152613dd78161368a565b9050919050565b60006020820190508181036000830152613df7816136ca565b9050919050565b60006020820190508181036000830152613e1781613730565b9050919050565b60006020820190508181036000830152613e3781613770565b9050919050565b60006020820190508181036000830152613e57816137b0565b9050919050565b60006020820190508181036000830152613e77816137f0565b9050919050565b60006020820190508181036000830152613e9781613830565b9050919050565b60006020820190508181036000830152613eb781613896565b9050919050565b60006020820190508181036000830152613ed7816138d6565b9050919050565b60006020820190508181036000830152613ef781613970565b9050919050565b60006020820190508181036000830152613f17816139d6565b9050919050565b60006020820190508181036000830152613f3781613a56565b9050919050565b6000602082019050613f536000830184613a96565b92915050565b6000604051905081810181811067ffffffffffffffff82111715613f7c57600080fd5b8060405250919050565b600067ffffffffffffffff821115613f9d57600080fd5b601f19601f8301169050602081019050919050565b60008190508160005260206000209050919050565b600081519050919050565b600081519050919050565b600082825260208201905092915050565b600081905092915050565b600082825260208201905092915050565b600081905092915050565b60006140208261409c565b9050919050565b60006140328261409c565b9050919050565b60008115159050919050565b6000819050919050565b60007fffffffff0000000000000000000000000000000000000000000000000000000082169050919050565b60008190506140898261419c565b919050565b600061ffff82169050919050565b600073ffffffffffffffffffffffffffffffffffffffff82169050919050565b6000819050919050565b60006140d1826140d8565b9050919050565b60006140e38261409c565b9050919050565b60006140f58261407b565b9050919050565b60006141078261408e565b9050919050565b82818337600083830152505050565b60005b8381101561413b578082015181840152602081019050614120565b8381111561414a576000848401525b50505050565b600061415b82614162565b9050919050565b600061416d8261418f565b9050919050565b6000819050919050565b6000601f19601f8301169050919050565b60008160601b9050919050565b600381106141a657fe5b50565b6141b281614015565b81146141bd57600080fd5b50565b6141c981614027565b81146141d457600080fd5b50565b6141e081614039565b81146141eb57600080fd5b50565b6141f781614045565b811461420257600080fd5b50565b61420e816140bc565b811461421957600080fd5b5056fe68747470733a2f2f6170692e7374616b656c6567656e64732e756c792e6465762f72616e6b68747470733a2f2f6170692e7374616b656c6567656e64732e756c792e6465762f76616c6964617465a2646970667358221220ed6e24c479a750222750bfeac506c8b40413c34c01266471a43c839e3ac39b4c64736f6c634300060c0033",
  "compiler": {
    "name": "solc",
    "version": "0.6.12+commit.27d51765.Emscripten.clang",
    "optimizer": {
      "enabled": false,
      "runs": 200
    },
    "evmVersion": "petersburg"
  }
}